:020000040000FA
:100000000C945D000C9485000C9485000C94850084
:100010000C9485000C9485000C9485000C9485004C
:100020000C9485000C9485000C9485000C94DC03E2
:100030000C9485000C9485000C9485000C9485002C
:100040000C9492030C9485000C9460030C943A0376
:100050000C9485000C9485000C9485000C9485000C
:100060000C9485000C94850000000008000201003B
:100070000003040700000000000000000000000072
:10008000250028002B0000000000240027002A0083
:10009000040404040404040402020202020203032E
:1000A0000303030301020408102040800102040836
:1000B0001020010204081020B30411241FBECFEF4A
:1000C000D8E0DEBFCDBF11E0A0E0B1E0E4EEFDE09E
:1000D00002C005900D92A432B107D9F721E0A4E245
:1000E000B1E001C01D92A93FB207E1F710E0CDE5F4
:1000F000D0E004C02197FE010E94EA06CC35D1076A
:10010000C9F70E94EB040C94F0060C94000090E0F8
:10011000FC01EC55FF4F249180579F4FFC018491C7
:10012000882399F090E0880F991FFC01EA57FF4F50
:10013000A591B491FC01E458FF4F859194918FB73C
:10014000F894EC91E22BEC938FBF0895AF92BF929D
:10015000CF92DF92EF92FF920F931F93CF93DF9393
:100160006C017B018B01040F151FEB015E01AE18C2
:10017000BF08C017D10759F06991D601ED91FC91E4
:100180000190F081E02DC6010995892B79F7C50111
:10019000DF91CF911F910F91FF90EF90DF90CF9063
:1001A000BF90AF900895FC01538D448D252F30E012
:1001B000842F90E0821B930B541710F0CF96089574
:1001C00001970895FC01918D828D981761F0A28DA1
:1001D000AE0FBF2FB11D5D968C91928D9F5F9F7367
:1001E000928F90E008958FEF9FEF0895FC01918D1D
:1001F000828D981731F0828DE80FF11D858D90E08A
:1002000008958FEF9FEF0895FC01918D228D892F26
:1002100090E0805C9F4F821B91098F73992708950E
:1002200083E591E00E94040121E0892B09F420E09C
:10023000822F089580E090E0892B29F00E94100120
:1002400081110C9400000895FC01A48DA80FB92F12
:10025000B11DA35ABF4F2C91848D90E001968F73EE
:100260009927848FA689B7892C93A089B1898C910D
:10027000837080648C93938D848D981306C002885C
:10028000F389E02D80818F7D80830895EF92FF9226
:100290000F931F93CF93DF93EC0181E0888F9B8DA9
:1002A0008C8D98131AC0E889F989808185FF15C063
:1002B0009FB7F894EE89FF896083E889F989808186
:1002C0008370806480839FBF81E090E0DF91CF9155
:1002D0001F910F91FF90EF900895F62E0B8D10E077
:1002E0000F5F1F4F0F731127E02E8C8D8E110CC0E6
:1002F0000FB607FCFACFE889F989808185FFF5CF31
:10030000CE010E942401F1CFEB8DEC0FFD2FF11DEA
:10031000E35AFF4FF0829FB7F8940B8FEA89FB896D
:1003200080818062CFCFCF93DF93EC01888D8823CB
:10033000B9F0AA89BB89E889F9898C9185FD03C048
:10034000808186FD0DC00FB607FCF7CF8C9185FF2D
:10035000F2CF808185FFEDCFCE010E942401E9CF4D
:10036000DF91CF91089590E0FC01E859FF4F24916F
:10037000FC01EC55FF4F3491FC01E057FF4FE49135
:10038000EE23C9F0222339F0233001F1A8F4213003
:1003900019F1223029F1F0E0EE0FFF1FE458FF4F72
:1003A000A591B4918FB7F894EC91611126C0309566
:1003B0003E233C938FBF08952730A9F02830C9F021
:1003C000243049F7809180008F7D03C080918000A8
:1003D0008F7780938000DFCF84B58F7784BDDBCFAC
:1003E00084B58F7DFBCF8091B0008F778093B00074
:1003F000D2CF8091B0008F7DF9CF3E2BDACF3FB7BF
:10040000F89480914F0190915001A0915101B091C9
:10041000520126B5A89B05C02F3F19F00196A11DDA
:10042000B11D3FBFBA2FA92F982F8827BC01CD013E
:10043000620F711D811D911D42E0660F771F881F9D
:10044000991F4A95D1F708958F929F92AF92BF92CC
:10045000CF92DF92EF92FF924B015C010E94FF016D
:100460006B017C010E94FF016C197D098E099F09B7
:10047000683E734081059105A8F321E0821A910836
:10048000A108B10888EEC80E83E0D81EE11CF11C5B
:1004900081149104A104B10429F7FF90EF90DF903B
:1004A000CF90BF90AF909F908F900895CF92DF92A2
:1004B000EF92FF92CF93DF93EC01603282E07807F6
:1004C000CCF5653B710514F064EB70E0898128E898
:1004D00030E0281B310987FD3395220F331F220F8F
:1004E000331F6901330FEE08FF088A8128E532E0E7
:1004F000281B310987FD3395220F331F220F331F2D
:10050000032E000C440B550B2C193D094E095F09B5
:10051000DB0177FF02C0B0E0A0E00E94A50624EB5B
:1005200030E040E050E00E947B06C20ED31EE41E85
:10053000F51EB601E881EC3070F5298188E890E07D
:10054000821B910927FD9395880F991F880F991F8A
:10055000681779077CF02A8188E592E0821B91096F
:1005600027FD9395880F991F880F991F68177907A2
:100570000CF4CB010297880F991F4FB7F8942E2FD8
:1005800030E0F901EE0FFF1FE20FF31FEA5DFE4FAF
:10059000928381834FBFDF91CF91FF90EF90DF90E7
:1005A000CF9008951F93CF93DF93EC01162F88818E
:1005B0008C3008F04DC0862F0E9487008881282F3C
:1005C00030E0F901EE0FFF1FE20FF31FEA5DFE4F6F
:1005D0001F736081607C612B608319821A822CE01A
:1005E000622F0E94DE06829FB001112430E020E0DD
:1005F000AB01420F531FFA01EE0FFF1FE40FF51F6F
:10060000EA5DFE4F908196FD16C02F5F3F4F2C3064
:10061000310571F781110FC01092800082E0809344
:1006200081001092850010928400B19A80916F0031
:10063000826080936F00E8818E2F90E0FC01EE0FC6
:10064000FF1FE80FF91FEA5DFE4F80818064808301
:100650008881DF91CF911F910895FC0101900020C6
:10066000E9F73197AF01481B590BBC0183E591E0D5
:100670000C94A6001F920F920FB60F9211242F9385
:100680003F934F935F936F937F938F939F93AF931A
:10069000BF93EF93FF9383E591E00E942401FF91C4
:1006A000EF91BF91AF919F918F917F916F915F91EA
:1006B0004F913F912F910F900FBE0F901F90189563
:1006C0001F920F920FB60F9211242F938F939F9327
:1006D000EF93FF93E0916301F09164018081E091D9
:1006E0006901F0916A0182FD1BC0908180916C01CB
:1006F0008F5F8F7320916D01821741F0E0916C0143
:10070000F0E0ED5AFE4F958F80936C01FF91EF91D1
:100710009F918F912F910F900FBE0F901F90189562
:100720008081F4CF1F920F920FB60F9211242F9356
:100730003F938F939F93AF93BF9380914B01909181
:100740004C01A0914D01B0914E0130914A0123E03E
:10075000230F2D3758F50196A11DB11D20934A0195
:1007600080934B0190934C01A0934D01B0934E01A7
:1007700080914F0190915001A0915101B09152018F
:100780000196A11DB11D80934F0190935001A0933C
:100790005101B0935201BF91AF919F918F913F91C1
:1007A0002F910F900FBE0F901F90189526E8230FE2
:1007B0000296A11DB11DD2CF1F920F920FB60F92BC
:1007C00011242F933F934F935F936F937F938F9356
:1007D0009F93AF93BF93CF93DF93EF93FF9380915A
:1007E0002401C0912501D0E087FF24C0109285002C
:1007F00010928400809124018F5F80932401809166
:100800002401082E000C990B8C179D0724F480916D
:1008100024018C30C4F1809184009091850004966D
:1008200080349C4908F47AC08091840090918500BE
:10083000049676C080912401082E000C990B8C1729
:100840009D07C4F6E09124018E2FEE0F990BFC0159
:10085000EE0FFF1FE80FF91FEA5DFE4F808186FF54
:10086000C9CFE09124018E2FEE0F990BFC01EE0F02
:10087000FF1FE80FF91FEA5DFE4F808160E08F7374
:100880000E94B301B7CF2091840030918500E091A0
:1008900024018E2FEE0F990BFC01EE0FFF1FE80FC6
:1008A000F91FEA5DFE4F81819281820F931F909321
:1008B000890080938800E09124018E2FEE0F990B20
:1008C000FC01EE0FFF1FE80FF91FEA5DFE4F80816C
:1008D00086FF11C0E09124018E2FEE0F990BFC01D1
:1008E000EE0FFF1FE80FF91FEA5DFE4F808161E008
:1008F0008F730E94B301FF91EF91DF91CF91BF9170
:10090000AF919F918F917F916F915F914F913F91A7
:100910002F910F900FBE0F901F90189580E49CE9C7
:1009200090938900809388008FEF80932401E3CF18
:10093000FC01909125019C3098F481E0890F80930F
:1009400025019083892F90E0FC01EE0FFF1FE80F37
:10095000F91FEA5DFE4F88EB9BE092838183089547
:100960008FEF80830895E3E5F1E01382128288EE31
:1009700093E0A0E0B0E084839583A683B78388E00A
:1009800091E09183808385EC90E09587848784EC67
:1009900090E09787868780EC90E0918B808B81EC4C
:1009A00090E0938B828B82EC90E0958B848B86EC2D
:1009B00090E0978B868B118E128E138E148E86EF9D
:1009C00091E00E94980483EF91E00E94980480EFE8
:1009D00091E00C949804CF93DF93CDB7DEB7A19745
:1009E0000FB6F894DEBF0FBECDBF789484B5826099
:1009F00084BD84B5816084BD85B5826085BD85B5C3
:100A0000816085BD80916E00816080936E00109240
:100A100081008091810082608093810080918100BB
:100A2000816080938100809180008160809380004C
:100A30008091B10084608093B1008091B0008160AA
:100A40008093B00080917A00846080937A008091D6
:100A50007A00826080937A0080917A00816080932E
:100A60007A0080917A00806880937A001092C100A9
:100A7000E0916301F091640182E08083E0915F0185
:100A8000F09160011082E0916101F09162018FECC0
:100A9000808310926B01E0916701F091680186E01C
:100AA0008083E0916501F09166018081806180839F
:100AB000E0916501F0916601808188608083E0911A
:100AC0006501F0916601808180688083E091650115
:100AD000F091660180818F7D80836BE070E086EF0E
:100AE00091E00E94D202609100017091010186EFB5
:100AF00091E00E9456026CE070E083EF91E00E946A
:100B0000D202609102017091030183EF91E00E9493
:100B100056026AE070E080EF91E00E94D20270E03D
:100B200060E080EF91E00E9456026AE070E080E0B1
:100B300090E00E94240282E00E94870083E00E94ED
:100B4000870084E00E94870085E00E9487008AE099
:100B5000882E912CA12CB12C90E0E92E90E0F92E5A
:100B600083E591E00E940401892B09F4B8C083E574
:100B700091E00E94E2008C0186E191E00E942D0349
:100B8000202F30E050E040E019A26E0181E2C80E53
:100B9000D11CCA01B901A50194010E94AD06605D96
:100BA000F60162936F01211531054105510589F761
:100BB000309719F0CF010E942D0381E291E00E944D
:100BC0002D0311270333110509F477C014F5013300
:100BD0001105A1F10233110519F6009102011091DE
:100BE00003010B5F1F4F10930301009302016AE0A2
:100BF00070E080E090E00E942402B80183EF91E071
:100C00000E94560264E670E080E090E00E942402B8
:100C1000A7CF0433110509F45BC060910001709106
:100C20000101655071090533110509F099CF7093E1
:100C300001016093000186EF91E0E2CF61E082E084
:100C40000E94B30160E083E00E94B30160E084E0B1
:100C50000E94B30161E085E00E94B30160E971E0A8
:100C600080E090E00E94240264EB70E080EF91E06D
:100C70000E9456026AEF70E080E090E00E94240239
:100C800070E060E080EF91E00E94560268E572E05B
:100C900080E090E00E94240260E082E00E94B301C4
:100CA00060E083E00E94B30160E084E00E94B30151
:100CB00060E085E00E94B30153CF60910201709122
:100CC000030165507109709303016093020196CF8F
:100CD00060910001709101016B5F7F4FA8CFE1141B
:100CE000F10409F43DCF0E941001882309F438CFA4
:100CF0000E94000035CF052E97FB1EF400940E9441
:100D0000920657FD07D00E94AD0607FC03D04EF4B3
:100D10000C94920650954095309521953F4F4F4F3A
:100D20005F4F089590958095709561957F4F8F4F97
:100D30009F4F08950E94CF06A59F900DB49F900DE0
:100D4000A49F800D911D11240895B7FF0C949A065D
:100D50000E949A06821B930B0895A1E21A2EAA1BE9
:100D6000BB1BFD010DC0AA1FBB1FEE1FFF1FA2175B
:100D7000B307E407F50720F0A21BB30BE40BF50B58
:100D8000661F771F881F991F1A9469F760957095E1
:100D9000809590959B01AC01BD01CF010895A29F64
:100DA000B001B39FC001A39F700D811D1124911D3F
:100DB000B29F700D811D1124911D0895991B79E03A
:100DC00004C0991F961708F0961B881F7A95C9F7DB
:100DD00080950895EE0FFF1F0590F491E02D099482
:100DE000F894FFCF5A005A00000000004601A60008
:100DF000D30093010401E200F60053797374207369
:080E0000656E643A000D0A0062
:107E0000112484B714BE81FFF0D085E080938100F7
:107E100082E08093C00088E18093C10086E0809377
:107E2000C20080E18093C4008EE0C9D0259A86E02C
:107E300020E33CEF91E0309385002093840096BBD3
:107E4000B09BFECF1D9AA8958150A9F7CC24DD24C4
:107E500088248394B5E0AB2EA1E19A2EF3E0BF2EE7
:107E6000A2D0813461F49FD0082FAFD0023811F036
:107E7000013811F484E001C083E08DD089C08234E0
:107E800011F484E103C0853419F485E0A6D080C0E4
:107E9000853579F488D0E82EFF2485D0082F10E0AE
:107EA000102F00270E291F29000F111F8ED06801E7
:107EB0006FC0863521F484E090D080E0DECF843638
:107EC00009F040C070D06FD0082F6DD080E0C81688
:107ED00080E7D80618F4F601B7BEE895C0E0D1E017
:107EE00062D089930C17E1F7F0E0CF16F0E7DF06D8
:107EF00018F0F601B7BEE89568D007B600FCFDCFD4
:107F0000A601A0E0B1E02C9130E011968C91119780
:107F100090E0982F8827822B932B1296FA010C0160
:107F200087BEE89511244E5F5F4FF1E0A038BF0790
:107F300051F7F601A7BEE89507B600FCFDCF97BE46
:107F4000E89526C08437B1F42ED02DD0F82E2BD052
:107F50003CD0F601EF2C8F010F5F1F4F84911BD097
:107F6000EA94F801C1F70894C11CD11CFA94CF0C13
:107F7000D11C0EC0853739F428D08EE10CD085E9AC
:107F80000AD08FE07ACF813511F488E018D01DD067
:107F900080E101D065CF982F8091C00085FFFCCF94
:107FA0009093C60008958091C00087FFFCCF809118
:107FB000C00084FD01C0A8958091C6000895E0E648
:107FC000F0E098E1908380830895EDDF803219F02E
:107FD00088E0F5DFFFCF84E1DECF1F93182FE3DFCA
:107FE0001150E9F7F2DF1F91089580E0E8DFEE27F6
:047FF000FF270994CA
:027FFE00040479
:00000001FF
